S00E00004843535230342E7372656382
S11300000C945A000C94AB000C9477000C94770079
S11300100C9477000C9477000C9477000C94770080
S11300200C9477000C9477000C9477000C94770070
S11300300C9477000C9477000C9477000C94770060
S11300400C9477000C9477000C9477000C94770050
S11300500C9477000C9477000C9477000C94770040
S11300600C9477000C9477000C9477000C94770030
S11300700C9477000C9477000C9477000C94770020
S11300800C9477000C9477000C9477000C94770010
S11300900C9477000C9477000C9477000C94770000
S11300A00C9477000C9477000C9477000C947700F0
S11300B00C94770011241FBECFEFD8E0DEBFCDBF74
S11300C011E0A0E0B1E0E8E0F5E002C005900D9297
S11300D0A430B107D9F721E0A4E0B1E001C01D923A
S11300E0AF30B207E1F70E94D3000C9482020C9463
S11300F000001092C50087E68093C40088E18093D5
S1130100C10086E08093C2000895E0ECF0E09081A5
S113011095FFFDCF8093C60008950F931F93CF934F
S1130120FC018081882359F08F01C0E00E94850082
S1130130CF5FF801EC0FF11D80818111F7CFCF91D2
S11301401F910F910895E89AE9E6F0E080818860B4
S11301508083789408951F920F920FB60F92112402
S11301608F939F93AF93BF93EF93FF93109281006C
S1130170E4E8F0E080819181A0E0B0E080930601A2
S113018090930701A0930801B09309011182108292
S1130190FF91EF91BF91AF919F918F910F900FBEFF
S11301A00F901F901895539A52985A9A0E9479006A
S11301B00E94A300C1E8D0E08881836088835B98B3
S11301C085E38A95F1F700005B9A85E38A95F1F758
S11301D000005B9885E38A95F1F7000060910601C1
S11301E07091070180910801909109010E945401C6
S11301F026E933E44BE05DE30E94B80120E030E0FF
S113020040E05FE30E94B8010E941C017093050165
S11302106093040180910401909105014AE06AE031
S113022071E00E944D028AE091E00E948D0080E01E
S113023091E00E948D00C0CF0E9423016894B11107
S11302400C94B20108950E94970188F09F5798F08A
S1130250B92F9927B751B0F0E1F0660F771F881FC7
S1130260991F1AF0BA95C9F714C0B13091F00E94E1
S1130270B101B1E008950C94B101672F782F88275C
S1130280B85F39F0B93FCCF3869577956795B39508
S1130290D9F73EF490958095709561957F4F8F4F77
S11302A09F4F0895E89409C097FB3EF4909580957C
S11302B0709561957F4F8F4F9F4F9923A9F0F92F28
S11302C096E9BB279395F695879577956795B795A6
S11302D0F111F8CFFAF4BB0F11F460FF1BC06F5F8C
S11302E07F4F8F4F9F4F16C0882311F096E911C09E
S11302F0772321F09EE8872F762F05C0662371F0BF
S113030096E8862F70E060E02AF09A95660F771FD2
S1130310881FDAF7880F9695879597F9089557FD02
S11303209058440F551F59F05F3F71F04795880F5F
S113033097FB991F61F09F3F79F0879508951216F6
S113034013061406551FF2CF4695F1DF08C01616A2
S113035017061806991FF1CF869571056105089453
S11303600895E894BB2766277727CB0197F908956A
S11303700E94CB010C943C020E942E0238F00E9491
S1130380350220F0952311F00C9425020C942B02D5
S113039011240C94B2010E948F0170F3959FC1F354
S11303A0950F50E0551F629FF001729FBB27F00D1F
S11303B0B11D639FAA27F00DB11DAA1F649F662774
S11303C0B00DA11D661F829F2227B00DA11D621FC3
S11303D0739FB00DA11D621F839FA00D611D221F7D
S11303E0749F3327A00D611D231F849F600D211D61
S11303F0822F762F6A2F11249F5750409AF0F1F0E4
S113040088234AF0EE0FFF1FBB1F661F771F881F4C
S113041091505040A9F79E3F510580F00C9425025D
S11304200C94B2015F3FE4F3983ED4F3869577953C
S11304306795B795F795E7959F5FC1F7FE2B880FF2
S1130440911D9695879597F9089597F99F6780E888
S113045070E060E008959FEF80EC089500240A9412
S11304601616170618060906089500240A9412168B
S11304701306140605060895092E0394000C11F4BE
S1130480882352F0BB0F40F4BF2B11F460FF04C06B
S11304906F5F7F4F8F4F9F4F0895BB274A3031F4D2
S11304A0992322F4BDE2909581959F4F0C945902B3
S11304B0BB27FB015527AA27880F991FAA1FA4173A
S11304C010F0A41B83955051B9F7A05DAA3308F02E
S11304D0A95DA193009779F7B111B1931192CB0162
S11304E00C947202DC01FC01672F71917723E1F710
S11304F0329704C07C916D9370836291AE17BF07ED
S10B0500C8F30895F894FFCF3D
S10705080D0A0000D4
S9030000FC
